{
  "contractName": "Trades",
  "abi": [
    {
      "constant": true,
      "inputs": [
        {
          "name": "",
          "type": "address"
        }
      ],
      "name": "isTrader",
      "outputs": [
        {
          "name": "",
          "type": "bool"
        }
      ],
      "payable": false,
      "stateMutability": "view",
      "type": "function"
    },
    {
      "constant": true,
      "inputs": [
        {
          "name": "",
          "type": "uint256"
        }
      ],
      "name": "tradesList",
      "outputs": [
        {
          "name": "trader",
          "type": "address"
        },
        {
          "name": "tradeType",
          "type": "bool"
        },
        {
          "name": "shareName",
          "type": "string"
        },
        {
          "name": "cost",
          "type": "uint256"
        },
        {
          "name": "count",
          "type": "uint256"
        },
        {
          "name": "time",
          "type": "uint256"
        }
      ],
      "payable": false,
      "stateMutability": "view",
      "type": "function"
    },
    {
      "constant": true,
      "inputs": [],
      "name": "owner",
      "outputs": [
        {
          "name": "",
          "type": "address"
        }
      ],
      "payable": false,
      "stateMutability": "view",
      "type": "function"
    },
    {
      "inputs": [],
      "payable": false,
      "stateMutability": "nonpayable",
      "type": "constructor"
    },
    {
      "anonymous": false,
      "inputs": [
        {
          "indexed": false,
          "name": "trader",
          "type": "address"
        },
        {
          "indexed": false,
          "name": "_type",
          "type": "bool"
        },
        {
          "indexed": false,
          "name": "shareName",
          "type": "string"
        },
        {
          "indexed": false,
          "name": "cost",
          "type": "uint256"
        },
        {
          "indexed": false,
          "name": "count",
          "type": "uint256"
        },
        {
          "indexed": false,
          "name": "time",
          "type": "uint256"
        }
      ],
      "name": "NewTrade",
      "type": "event"
    },
    {
      "constant": false,
      "inputs": [
        {
          "name": "_trader",
          "type": "address"
        }
      ],
      "name": "verifyTrader",
      "outputs": [],
      "payable": false,
      "stateMutability": "nonpayable",
      "type": "function"
    },
    {
      "constant": false,
      "inputs": [
        {
          "name": "_type",
          "type": "bool"
        },
        {
          "name": "_shareName",
          "type": "string"
        },
        {
          "name": "_cost",
          "type": "uint256"
        },
        {
          "name": "_count",
          "type": "uint256"
        },
        {
          "name": "_time",
          "type": "uint256"
        }
      ],
      "name": "addTrade",
      "outputs": [],
      "payable": false,
      "stateMutability": "nonpayable",
      "type": "function"
    },
    {
      "constant": true,
      "inputs": [],
      "name": "getSize",
      "outputs": [
        {
          "name": "",
          "type": "uint256"
        }
      ],
      "payable": false,
      "stateMutability": "view",
      "type": "function"
    },
    {
      "constant": true,
      "inputs": [
        {
          "name": "index",
          "type": "uint256"
        }
      ],
      "name": "getTrade",
      "outputs": [
        {
          "name": "",
          "type": "address"
        },
        {
          "name": "",
          "type": "bool"
        },
        {
          "name": "",
          "type": "string"
        },
        {
          "name": "",
          "type": "uint256"
        },
        {
          "name": "",
          "type": "uint256"
        },
        {
          "name": "",
          "type": "uint256"
        }
      ],
      "payable": false,
      "stateMutability": "view",
      "type": "function"
    }
  ],
  "bytecode": "0x6060604052341561000f57600080fd5b336000806101000a81548173ffffffffffffffffffffffffffffffffffffffff021916908373ffffffffffffffffffffffffffffffffffffffff160217905550610c038061005e6000396000f300606060405260043610610083576000357c0100000000000000000000000000000000000000000000000000000000900463ffffffff1680632db25e05146100885780634039ad0d146101775780634ffb25bd146101c857806350b956341461024b5780638b843b1b146102845780638da5cb5b14610373578063de8fa431146103c8575b600080fd5b341561009357600080fd5b6100a960048080359060200190919050506103f1565b604051808773ffffffffffffffffffffffffffffffffffffffff1673ffffffffffffffffffffffffffffffffffffffff1681526020018615151515815260200180602001858152602001848152602001838152602001828103825286818151815260200191508051906020019080838360005b8381101561013757808201518184015260208101905061011c565b50505050905090810190601f1680156101645780820380516001836020036101000a031916815260200191505b5097505050505050505060405180910390f35b341561018257600080fd5b6101ae600480803573ffffffffffffffffffffffffffffffffffffffff169060200190919050506105a4565b604051808215151515815260200191505060405180910390f35b34156101d357600080fd5b6102496004808035151590602001909190803590602001908201803590602001908080601f016020809104026020016040519081016040528093929190818152602001838380828437820191505050505050919080359060200190919080359060200190919080359060200190919050506105c4565b005b341561025657600080fd5b610282600480803573ffffffffffffffffffffffffffffffffffffffff1690602001909190505061082b565b005b341561028f57600080fd5b6102a560048080359060200190919050506108e0565b604051808773ffffffffffffffffffffffffffffffffffffffff1673ffffffffffffffffffffffffffffffffffffffff1681526020018615151515815260200180602001858152602001848152602001838152602001828103825286818151815260200191508051906020019080838360005b83811015610333578082015181840152602081019050610318565b50505050905090810190601f1680156103605780820380516001836020036101000a031916815260200191505b5097505050505050505060405180910390f35b341561037e57600080fd5b6103866109f0565b604051808273ffffffffffffffffffffffffffffffffffffffff1673ffffffffffffffffffffffffffffffffffffffff16815260200191505060405180910390f35b34156103d357600080fd5b6103db610a15565b6040518082815260200191505060405180910390f35b6000806103fc610a22565b600080600060028781548110151561041057fe5b906000526020600020906005020160000160009054906101000a900473ffffffffffffffffffffffffffffffffffffffff1660028881548110151561045157fe5b906000526020600020906005020160000160149054906101000a900460ff1660028981548110151561047f57fe5b906000526020600020906005020160010160028a81548110151561049f57fe5b90600052602060002090600502016002015460028b8154811015156104c057fe5b90600052602060002090600502016003015460028c8154811015156104e157fe5b906000526020600020906005020160040154838054600181600116156101000203166002900480601f0160208091040260200160405190810160405280929190818152602001828054600181600116156101000203166002900480156105885780601f1061055d57610100808354040283529160200191610588565b820191906000526020600020905b81548152906001019060200180831161056b57829003601f168201915b5050505050935095509550955095509550955091939550919395565b60016020528060005260406000206000915054906101000a900460ff1681565b600160003373ffffffffffffffffffffffffffffffffffffffff1673ffffffffffffffffffffffffffffffffffffffff16815260200190815260200160002060009054906101000a900460ff16151561061c57600080fd5b600280548060010182816106309190610a36565b9160005260206000209060050201600060c0604051908101604052803373ffffffffffffffffffffffffffffffffffffffff168152602001891515815260200188815260200187815260200186815260200185815250909190915060008201518160000160006101000a81548173ffffffffffffffffffffffffffffffffffffffff021916908373ffffffffffffffffffffffffffffffffffffffff16021790555060208201518160000160146101000a81548160ff021916908315150217905550604082015181600101908051906020019061070e929190610a68565b50606082015181600201556080820151816003015560a082015181600401555050507f6017f8c52c71a63c948472b8259c2d6188d36b334c6fb071294fed6226b7cfd2338686868686604051808773ffffffffffffffffffffffffffffffffffffffff1673ffffffffffffffffffffffffffffffffffffffff1681526020018615151515815260200180602001858152602001848152602001838152602001828103825286818151815260200191508051906020019080838360005b838110156107e55780820151818401526020810190506107ca565b50505050905090810190601f1680156108125780820380516001836020036101000a031916815260200191505b5097505050505050505060405180910390a15050505050565b6000809054906101000a900473ffffffffffffffffffffffffffffffffffffffff1673ffffffffffffffffffffffffffffffffffffffff163373ffffffffffffffffffffffffffffffffffffffff1614151561088657600080fd5b60018060008373ffffffffffffffffffffffffffffffffffffffff1673ffffffffffffffffffffffffffffffffffffffff16815260200190815260200160002060006101000a81548160ff02191690831515021790555050565b6002818154811015156108ef57fe5b90600052602060002090600502016000915090508060000160009054906101000a900473ffffffffffffffffffffffffffffffffffffffff16908060000160149054906101000a900460ff1690806001018054600181600116156101000203166002900480601f0160208091040260200160405190810160405280929190818152602001828054600181600116156101000203166002900480156109d45780601f106109a9576101008083540402835291602001916109d4565b820191906000526020600020905b8154815290600101906020018083116109b757829003601f168201915b5050505050908060020154908060030154908060040154905086565b6000809054906101000a900473ffffffffffffffffffffffffffffffffffffffff1681565b6000600280549050905090565b602060405190810160405280600081525090565b815481835581811511610a6357600502816005028360005260206000209182019101610a629190610ae8565b5b505050565b828054600181600116156101000203166002900490600052602060002090601f016020900481019282601f10610aa957805160ff1916838001178555610ad7565b82800160010185558215610ad7579182015b82811115610ad6578251825591602001919060010190610abb565b5b509050610ae49190610b6a565b5090565b610b6791905b80821115610b6357600080820160006101000a81549073ffffffffffffffffffffffffffffffffffffffff02191690556000820160146101000a81549060ff0219169055600182016000610b429190610b8f565b60028201600090556003820160009055600482016000905550600501610aee565b5090565b90565b610b8c91905b80821115610b88576000816000905550600101610b70565b5090565b90565b50805460018160011615610100020316600290046000825580601f10610bb55750610bd4565b601f016020900490600052602060002090810190610bd39190610b6a565b5b505600a165627a7a723058200320faad745126c1718b723c5297b8fc94c794e7a4bf6d08e8422e44e5b7592c0029",
  "source": "pragma solidity ^0.4.21;\n\ncontract Trades {\n\taddress public owner;\n\n\tstruct Trade {\n\t\taddress trader;\n\t\tbool tradeType; // 0 - buy, 1 - sell\n\t\tstring shareName;\n\t\tuint cost; // * 100\n\t\tuint count;\n\t\tuint time;\n\t}\n\n\tmapping (address => bool) public isTrader;\n\tTrade[] public tradesList;\n\n\tmodifier onlyOwner() {\n\t\trequire(msg.sender == owner);\n\t\t_;\n\t}\n\n\tmodifier onlyTrader() { \n\t\trequire (isTrader[msg.sender]); \n\t\t_; \n\t}\n\t\n\tevent NewTrade(address trader, bool _type, string shareName, uint cost, uint count, uint time);\n\n\tfunction Trades() public {\n\t\towner = msg.sender;\n\t}\n\n\tfunction verifyTrader(address _trader) onlyOwner public {\n\t\tisTrader[_trader] = true;\n\t}\n\n\n\tfunction addTrade(bool _type, string _shareName, uint _cost, uint _count, uint _time) onlyTrader public {\n\t\ttradesList.push(Trade({\n\t\t\t\ttrader: msg.sender,\n\t\t\t\ttradeType: _type,\n\t\t\t\tshareName: _shareName,\n\t\t\t\tcost: _cost,\n\t\t\t\tcount: _count,\n\t\t\t\ttime: _time\n\t\t\t}));\n\n\t\temit NewTrade(msg.sender, _type, _shareName, _cost, _count, _time);\n\t}\n\n\n\tfunction getSize() public constant returns (uint) {\n\t\treturn tradesList.length;\n\t}\n\n\tfunction getTrade(uint index) public constant returns (address, bool, string, uint, uint, uint) {\n\t\treturn (tradesList[index].trader, tradesList[index].tradeType, tradesList[index].shareName, tradesList[index].cost,\n\t\t\t\ttradesList[index].count, tradesList[index].time);\n\t}\n}",
  "sourcePath": "/home/niyaz/hackatons/blockachincup/smart-contract/contracts/Trades.sol",
  "compiler": {
    "name": "solc",
    "version": "0.4.21+commit.dfe3193c.Emscripten.clang"
  },
  "schemaVersion": "2.0.0",
  "updatedAt": "2018-04-21T15:57:39.240Z"
}